:020000040800F2
:1000000000C00020394800080D4700080F470008CD
:1000100011470008134700081547000800000000BA
:10002000000000000000000000000000174700086A
:1000300019470008000000001B4700081D47000882
:10004000814800088148000881480008814800086C
:10005000814800088148000881480008814800085C
:10006000814800088148000881480008413C000898
:10007000814800088148000881480008814800083C
:10008000814800088148000881480008814800082C
:100090008148000881480008814800082947000875
:1000A000814800088148000881480008814800080C
:1000B000814800082948000899460008814800083E
:1000C00081480008814800088148000881480008EC
:1000D00081480008814800088148000881480008DC
:1000E0009D470008814800088148000881480008B1
:1000F00081480008814800088148000881480008BC
:1001000081480008814800088148000881480008AB
:10011000814800088148000881480008814800089B
:10012000814800088148000881480008814800088B
:1001300000000000000000000000000000000000BF
:1001400000000000000000000000000000000000AF
:10015000000000000000000000000000000000009F
:10016000000000000000000000000000000000008F
:10017000000000000000000000000000000000007F
:10018000000000000000000000000000000000006F
:10019000000000000000000000000000000000005F
:1001A000000000000000000000000000000000004F
:1001B000000000000000000000000000000000003F
:1001C000000000000000000000000000000000002F
:1001D000000000000000000000000000000000001F
:0401E0005FF8E0F1F3
:1001E80010B5054C237833B9044B13B10448AFF369
:1001F80000800123237010BD900000200000000043
:100208004851000808B5034B1BB103490348AFF335
:10021800008008BD0000000094000020485100083C
:10022800034613F8012B002AFBD1181A013870472E
:1002380081F0004102E000BF83F0004330B54FEA8F
:1002480041044FEA430594EA050F08BF90EA020FFC
:100258001FBF54EA000C55EA020C7FEA645C7FEA8F
:10026800655C00F0E2804FEA5454D4EB5555B8BFB2
:100278006D420CDD2C4480EA020281EA030382EA23
:10028800000083EA010180EA020281EA0303362DB5
:1002980088BF30BD11F0004F4FEA01314FF4801C88
:1002A8004CEA113102D0404261EB410113F0004F9A
:1002B8004FEA03334CEA133302D0524263EB430351
:1002C80094EA050F00F0A780A4F10104D5F1200EEF
:1002D8000DDB02FA0EFC22FA05F2801841F100014A
:1002E80003FA0EF2801843FA05F359410EE0A5F11E
:1002F80020050EF1200E012A03FA0EFC28BF4CF04F
:10030800020C43FA05F3C01851EBE37101F0004504
:1003180007D54FF0000EDCF1000C7EEB00006EEB11
:100328000101B1F5801F1BD3B1F5001F0CD349089B
:100338005FEA30004FEA3C0C04F101044FEA4452F2
:1003480012F5800F80F09A80BCF1004F08BF5FEA79
:10035800500C50F1000041EB045141EA050130BD59
:100368005FEA4C0C404141EB010111F4801FA4F1FC
:100378000104E9D191F0000F04BF01460020B1FA51
:1003880081F308BF2033A3F10B03B3F120020CDA89
:100398000C3208DD02F1140CC2F10C0201FA0CF067
:1003A80021FA02F10CE002F11402D8BFC2F1200CCC
:1003B80001FA02F120FA0CFCDCBF41EA0C01904082
:1003C800E41AA2BF01EB0451294330BD6FEA0404CB
:1003D8001F3C1CDA0C340EDC04F11404C4F12002B6
:1003E80020FA04F001FA02F340EA030021FA04F3C8
:1003F80045EA030130BDC4F10C04C4F1200220FA1F
:1004080002F001FA04F340EA0300294630BD21FA5C
:1004180004F0294630BD94F0000F83F4801306BF22
:1004280081F480110134013D4EE77FEA645C18BF16
:100438007FEA655C29D094EA050F08BF90EA020FAD
:1004480005D054EA000C04BF1946104630BD91EAA5
:10045800030F1EBF0021002030BD5FEA545C05D1A8
:100468004000494128BF41F0004130BD14F58004E7
:100478003CBF01F5801130BD01F0004545F0FE415B
:1004880041F470014FF0000030BD7FEA645C1ABF90
:10049800194610467FEA655C1CBF0B46024650EAC7
:1004A800013406BF52EA033591EA030F41F40021F3
:1004B80030BD00BF90F0000F04BF0021704730B579
:1004C8004FF4806404F132044FF000054FF000014E
:1004D80050E700BF90F0000F04BF0021704730B50F
:1004E8004FF4806404F1320410F0004548BF4042E4
:1004F8004FF000013EE700BF42004FEAE2014FEA39
:1005080031014FEA02701FBF12F07F4393F07F4F13
:1005180081F06051704732F07F4208BF704793F016
:100528007F4F04BF41F40021704730B54FF4607429
:1005380001F0004521F000411CE700BF50EA01022C
:1005480008BF704730B54FF000050AE050EA0102D5
:1005580008BF704730B511F0004502D5404261EB45
:1005680041014FF4806404F132045FEA915C3FF486
:10057800D8AE4FF003025FEADC0C18BF03325FEA23
:10058800DC0C18BF033202EBDC02C2F1200300FAD4
:1005980003FC20FA02F001FA03FE40EA0E0021FAF9
:1005A80002F11444BDE600BF70B54FF0FF0C4CF4E7
:1005B800E06C1CEA11541DBF1CEA135594EA0C0F99
:1005C80095EA0C0F00F0DEF82C4481EA030621EAD4
:1005D8004C5123EA4C5350EA013518BF52EA03350F
:1005E80041F4801143F4801338D0A0FB02CE4FF0C1
:1005F8000005E1FB02E506F00042E0FB03E54FF0F1
:100608000006E1FB03569CF0000F18BF4EF0010EE8
:10061800A4F1FF04B6F5007F64F5407404D25FEAE4
:100628004E0E6D4146EB060642EAC62141EA555197
:100638004FEAC52040EA5E504FEACE2EB4F1FD0CD9
:1006480088BFBCF5E06F1ED8BEF1004F08BF5FEA57
:10065800500E50F1000041EB045170BD06F0004609
:1006680046EA010140EA020081EA0301B4EB5C04B6
:10067800C2BFD4EB0C0541EA045170BD41F48011AE
:100688004FF0000E013C00F3AB8014F1360FDEBFD3
:10069800002001F0004170BDC4F10004203C35DAAF
:1006A8000C341BDC04F11404C4F1200500FA05F332
:1006B80020FA04F001FA05F240EA020001F00042D3
:1006C80021F0004110EBD37021FA04F642EB060149
:1006D8005EEA430E08BF20EAD37070BDC4F10C0473
:1006E800C4F1200500FA04F320FA05F001FA04F237
:1006F80040EA020001F0004110EBD37041F1000123
:100708005EEA430E08BF20EAD37070BDC4F120052D
:1007180000FA05F24EEA020E20FA04F301FA05F295
:1007280043EA020321FA04F001F0004121FA04F23D
:1007380020EA020000EBD3705EEA430E08BF20EA0D
:10074800D37070BD94F0000F0FD101F00046400047
:1007580041EB010111F4801F08BF013CF7D041EAC9
:10076800060195F0000F18BF704703F000465200CD
:1007780043EB030313F4801F08BF013DF7D043EA9E
:100788000603704794EA0C0F0CEA135518BF95EA54
:100798000C0F0CD050EA410618BF52EA4306D1D1DB
:1007A80081EA030101F000414FF0000070BD50EAFA
:1007B800410606BF1046194652EA430619D094EA84
:1007C8000C0F02D150EA013613D195EA0C0F05D16E
:1007D80052EA03361CBF104619460AD181EA0301C2
:1007E80001F0004141F0FE4141F470014FF000007A
:1007F80070BD41F0FE4141F4780170BD70B54FF015
:10080800FF0C4CF4E06C1CEA11541DBF1CEA135594
:1008180094EA0C0F95EA0C0F00F0A7F8A4EB050476
:1008280081EA030E52EA03354FEA013100F088806D
:100838004FEA03334FF0805545EA131343EA126336
:100848004FEA022245EA111545EA10654FEA0026EB
:100858000EF000419D4208BF964244F1FD0404F5A4
:10086800407402D25B084FEA3202B61A65EB030500
:100878005B084FEA32024FF480104FF4002CB6EBBD
:10088800020E75EB030E22BFB61A754640EA0C003D
:100898005B084FEA3202B6EB020E75EB030E22BF7D
:1008A800B61A754640EA5C005B084FEA3202B6EBBE
:1008B800020E75EB030E22BFB61A754640EA9C007D
:1008C8005B084FEA3202B6EB020E75EB030E22BF4D
:1008D800B61A754640EADC0055EA060E18D04FEA0B
:1008E800051545EA16754FEA06164FEAC30343EAAB
:1008F80052734FEAC2025FEA1C1CC0D111F4801F78
:100908000BD141EA00014FF000004FF0004CB6E770
:1009180011F4801F04BF01430020B4F1FD0C88BF0F
:10092800BCF5E06F3FF6AFAEB5EB030C04BFB6EB1A
:10093800020C5FEA500C50F1000041EB045170BD0D
:100948000EF0004E4EEA113114EB5C04C2BFD4EB3A
:100958000C0541EA045170BD41F480114FF0000EBE
:10096800013C90E645EA060E8DE60CEA135594EA3A
:100978000C0F08BF95EA0C0F3FF43BAF94EA0C0F3D
:100988000AD150EA01347FF434AF95EA0C0F7FF4B2
:1009980025AF104619462CE795EA0C0F06D152EA06
:1009A80003353FF4FDAE1046194622E750EA4106EA
:1009B80018BF52EA43067FF4C5AE50EA41047FF4FB
:1009C8000DAF52EA43057FF4EBAE12E74FF0FF3C60
:1009D80006E000BF4FF0010C02E000BF4FF0010C31
:1009E8004DF804CD4FEA410C7FEA6C5C4FEA430CAA
:1009F80018BF7FEA6C5C1BD001B050EA410C0CBFF9
:100A080052EA430C91EA030F02BF90EA020F00205A
:100A1800704710F1000F91EA030F58BF994208BFC1
:100A280090422CBFD8176FEAE37040F0010070477E
:100A38004FEA410C7FEA6C5C02D150EA013C07D1D5
:100A48004FEA430C7FEA6C5CD6D152EA033CD3D020
:100A58005DF8040B704700BF8446104662468C461A
:100A68001946634600E000BF01B5FFF7B7FF00284D
:100A780048BF10F1000F01BD4DF808EDFFF7F4FF76
:100A88000CBF012000205DF808FB00BF4DF808ED01
:100A9800FFF7EAFF34BF012000205DF808FB00BF24
:100AA8004DF808EDFFF7E0FF94BF012000205DF846
:100AB80008FB00BF4DF808EDFFF7CEFF94BF0120FB
:100AC80000205DF808FB00BF4DF808EDFFF7C4FFF4
:100AD80034BF012000205DF808FB00BF4FEA410247
:100AE80012F5001215D211D56FF47873B3EB625278
:100AF80012D94FEAC12343F0004343EA505311F09F
:100B0800004F23FA02F018BF404270474FF0000030
:100B1800704750EA013005D111F0004008BF6FF06E
:100B2800004070474FF00000704700BF4FEA410295
:100B3800B2F1E04324BFB3F5001CDCF1FE5C0DD933
:100B480001F0004C4FEAC0024CEA5070B2F1004F7D
:100B580040EB830008BF20F00100704711F0804F80
:100B680021D113F13872BCBF01F00040704741F445
:100B780080114FEA5252C2F11802C2F1200C10FA49
:100B88000CF320FA02F018BF40F001004FEAC1232D
:100B98004FEAD32303FA0CFC40EA0C0023FA02F3D1
:100BA8004FEA4303CCE77FEA625307D150EA0133A7
:100BB8001EBF4FF0FE4040F44000704701F0004077
:100BC80040F0FE4040F40000704700BF80F0004055
:100BD80002E000BF81F0004142001FBF5FEA41030D
:100BE80092EA030F7FEA226C7FEA236C6AD04FEA0D
:100BF8001262D2EB1363C1BFD21841404840414052
:100C0800B8BF5B42192B88BF704710F0004F40F403
:100C1800000020F07F4018BF404211F0004F41F41F
:100C2800000121F07F4118BF494292EA030F3FD0EB
:100C3800A2F1010241FA03FC10EB0C00C3F12003FE
:100C480001FA03F100F0004302D5494260EB40008D
:100C5800B0F5000F13D3B0F1807F06D340084FEAF8
:100C6800310102F10102FE2A51D2B1F1004F40EBED
:100C7800C25008BF20F0010040EA03007047490055
:100C880040EB000010F4000FA2F10102EDD1B0FA20
:100C980080FCACF1080CB2EB0C0200FA0CF0AABF15
:100CA80000EBC25052421843BCBFD04018437047B3
:100CB80092F0000F81F4000106BF80F400000132B9
:100CC800013BB5E74FEA41037FEA226C18BF7FEA90
:100CD800236C21D092EA030F04D092F0000F08BFD2
:100CE8000846704790EA010F1CBF0020704712F0B9
:100CF8007F4F04D1400028BF40F00040704712F1F8
:100D080000723CBF00F50000704700F0004343F05C
:100D1800FE4040F4000070477FEA226216BF084692
:100D28007FEA23630146420206BF5FEA412390EA55
:100D3800010F40F4800070474FF0000304E000BF4B
:100D480010F0004348BF40425FEA000C08BF7047FC
:100D580043F0964301464FF000001CE050EA0102C0
:100D680008BF70474FF000030AE000BF50EA0102D5
:100D780008BF704711F0004302D5404261EB4101C2
:100D88005FEA010C02BF84460146002043F0B643E7
:100D980008BFA3F18053A3F50003BCFA8CF2083A0C
:100DA800A3EBC25310DB01FA02FC634400FA02FC15
:100DB800C2F12002BCF1004F20FA02F243EB02001C
:100DC80008BF20F00100704702F1200201FA02FC7E
:100DD800C2F1200250EA4C0021FA02F243EB020071
:100DE80008BF20EADC7070474FF0FF0C1CEAD052B5
:100DF8001EBF1CEAD15392EA0C0F93EA0C0F6FD076
:100E08001A4480EA010C400218BF5FEA41211ED053
:100E18004FF0006343EA501043EA5111A0FB01313F
:100E28000CF00040B1F5000F3EBF490041EAD37114
:100E38005B0040EA010062F17F02FD2A1DD8B3F190
:100E4800004F40EBC25008BF20F00100704790F0FF
:100E5800000F0CF0004C08BF49024CEA502040EA51
:100E680051207F3AC2BFD2F1FF0340EAC250704717
:100E780040F400004FF00003013A5DDC12F1190F55
:100E8800DCBF00F000407047C2F10002410021FAC7
:100E980002F1C2F1200200FA02FC5FEA310040F1DF
:100EA800000053EA4C0308BF20EADC70704792F058
:100EB800000F00F0004C02BF400010F4000F013A90
:100EC800F9D040EA0C0093F0000F01F0004C02BF8B
:100ED800490011F4000F013BF9D041EA0C018FE7FA
:100EE8000CEAD15392EA0C0F18BF93EA0C0F0AD000
:100EF80030F0004C18BF31F0004CD8D180EA010026
:100F080000F00040704790F0000F17BF90F0004FBE
:100F1800084691F0000F91F0004F14D092EA0C0FA0
:100F280001D142020FD193EA0C0F03D14B0218BF33
:100F3800084608D180EA010000F0004040F0FE4079
:100F480040F40000704740F0FE4040F44000704715
:100F58004FF0FF0C1CEAD0521EBF1CEAD15392EA94
:100F68000C0F93EA0C0F69D0A2EB030280EA010C84
:100F780049024FEA402037D04FF0805343EA11111D
:100F880043EA10130CF000408B4238BF5B0042F17B
:100F98007D024FF4000C8B4224BF5B1A40EA0C0020
:100FA800B3EB510F24BFA3EB510340EA5C00B3EB52
:100FB800910F24BFA3EB910340EA9C00B3EBD10F40
:100FC80024BFA3EBD10340EADC001B0118BF5FEA92
:100FD8001C1CE0D1FD2A3FF650AF8B4240EBC250BB
:100FE80008BF20F0010070470CF0004C4CEA50207C
:100FF8007F32C2BFD2F1FF0340EAC250704740F4CB
:1010080000004FF00003013A37E792F0000F00F0BC
:10101800004C02BF400010F4000F013AF9D040EA3A
:101028000C0093F0000F01F0004C02BF490011F4CE
:10103800000F013BF9D041EA0C0195E70CEAD153C6
:1010480092EA0C0F08D142027FF47DAF93EA0C0FAD
:101058007FF470AF084676E793EA0C0F04D14B0291
:101068003FF44CAF08466EE730F0004C18BF31F043
:10107800004CCAD130F000427FF45CAF31F000433D
:101088007FF43CAF5FE700BF4FF0FF3C06E000BFD6
:101098004FF0010C02E000BF4FF0010C4DF804CDF9
:1010A8004FEA40024FEA41037FEA226C18BF7FEA09
:1010B800236C11D001B052EA530C18BF90EA010F0B
:1010C80058BFB2EB030088BFC81738BF6FEAE1709A
:1010D80018BF40F0010070477FEA226C02D15FEA36
:1010E800402C05D17FEA236CE4D15FEA412CE1D0A2
:1010F8005DF8040B704700BF844608466146FFE769
:101108000FB5FFF7C9FF002848BF10F1000F0FBD4A
:101118004DF808EDFFF7F4FF0CBF012000205DF843
:1011280008FB00BF4DF808EDFFF7EAFF34BF0120C8
:1011380000205DF808FB00BF4DF808EDFFF7E0FF61
:1011480094BF012000205DF808FB00BF4DF808EDB2
:10115800FFF7D2FF94BF012000205DF808FB00BF15
:101168004DF808EDFFF7C8FF34BF012000205DF8F7
:1011780008FB00BF4FEA4002B2F1FE4F0FD34FF019
:101188009E03B3EB12620DD94FEA002343F00043EC
:1011980010F0004F23FA02F018BF404270474FF09A
:1011A8000000704712F1610F01D1420205D110F021
:1011B800004008BF6FF0004070474FF000007047D4
:1011C80082B0084B1B68084AA2FB03235B0A00FB9A
:1011D80003F0019000BF019B5A1E0192002BF9D128
:1011E80002B0704700000020D34D621070B582B085
:1011F8000446036813F0010F2CD0AB4B5B6803F077
:101208000C03042B1DD0A84B5B6803F00C03082BC0
:1012180012D06368B3F5803F41D0002B55D103F15C
:10122800804303F504331A6822F480321A601A687E
:1012380022F480221A6037E09B4B5B6813F4803FEE
:10124800E7D0994B1B6813F4003F03D06368002B69
:1012580000F0AE81236813F0020F75D0924B5B68E3
:1012680013F00C0F5FD0904B5B6803F00C03082B56
:1012780054D02369002B00F089808C4B01221A601E
:1012880001F07AF90546884B1B6813F0020F74D1F8
:1012980001F072F9401B0228F5D903208DE1824A3A
:1012A800136843F480331360636843B301F064F94F
:1012B80005467D4B1B6813F4003FCBD101F05CF968
:1012C800401B6428F5D9032077E1B3F5A02F09D096
:1012D800754B1A6822F480321A601A6822F4802248
:1012E8001A60E1E703F18043A3F53C331A6842F43E
:1012F80080221A601A6842F480321A60D4E701F03A
:101308003BF90546684B1B6813F4003FA2D001F077
:1013180033F9401B6428F5D903204EE1624B5B6822
:1013280013F4803FA5D1604B1B6813F0020F03D064
:101338002369012B40F03E815B4A136823F0F803D0
:10134800616943EAC1031360236813F0080F32D0C0
:10135800A369002B5BD0564B01221A6001F00CF9EF
:101368000546514B5B6A13F0020F21D101F004F9D5
:10137800401B0228F5D903201FE14B4A136823F0CC
:10138800F803616943EAC1031360DDE7474B0022B4
:101398001A6001F0F1F80546434B1B6813F0020F81
:1013A800D2D001F0E9F8401B0228F5D9032004E166
:1013B8000120FFF705FF236813F0040F00F0988061
:1013C800394BDB6913F0805F33D1374BDA6942F070
:1013D8008052DA61DB6903F080530193019B012598
:1013E800344B1B6813F4807F25D0E368012B36D07B
:1013F800002B4CD103F1804303F504331A6A22F021
:1014080001021A621A6A22F004021A622CE0284BBE
:1014180000221A6001F0B0F80546234B5B6A13F00E
:10142800020FC8D001F0A8F8401B0228F5D9032004
:10143800C3E00025D4E71F4A136843F480731360A0
:1014480001F09AF806461B4B1B6813F4807FCCD139
:1014580001F092F8801B6428F5D90320ADE0124A08
:10146800136A43F001031362E3687BB301F084F865
:1014780006460D4B1B6A13F0020F38D101F07CF8B9
:10148800801B41F288339842F3D9032095E0052B5D
:1014980012D0054B1A6A22F001021A621A6A22F067
:1014A80004021A62E0E700BF001002400000424256
:1014B8008004424200700040424B1A6A42F0040223
:1014C8001A621A6A42F001021A62CDE701F054F872
:1014D80006463C4B1B6A13F0020F08D001F04CF88B
:1014E800801B41F288339842F3D9032065E0E5B9BF
:1014F800E369002B60D0334A526802F00C02082AD4
:101508005DD0022B17D0304B00221A6001F034F85E
:1015180004462C4B1B6813F0007F47D001F02CF8D1
:10152800001B0228F5D9032047E0264AD36923F097
:101538008053D361DCE7244B00221A6001F01CF8C9
:101548000546204B1B6813F0007F06D001F014F805
:10155800401B0228F5D903202FE0236AB3F5803F0A
:101568001AD018494B6823F47413226A606A02433C
:1015780013434B60144B01221A6000F0FDFF044630
:10158800104B1B6813F0007F0ED100F0F5FF001B15
:101598000228F5D9032010E00A4A536823F40033DF
:1015A800A1680B435360DCE7002006E0002004E05C
:1015B800012002E0012000E0002002B070BD0120FF
:1015C800FBE700BF001002406000424210B487B041
:1015D800164C94E80F000DF1180C0CE90F00238A43
:1015E800ADF80430124B5B6803F00C02082A03D0F4
:1015F800104807B010BC7047C3F38342624412F826
:10160800100C13F4803F0CD0094B5B68C3F34043C4
:10161800634413F8142C074BB3FBF2F300FB03F0FD
:10162800E7E7054B03FB00F0E3E700BF6051000864
:101638000010024000127A0000093D005A4B1B6856
:1016480003F007038B420BD2574A136823F00703B2
:101658000B431360136803F007038B4240F09D802F
:1016680070B5036813F0020F06D0504A536823F090
:10167800F0038468234353600D460446036813F05F
:10168800010F52D04368012B23D0022B28D0474AA0
:10169800126812F0020F00F0828044494A6822F072
:1016A800030213434B6000F067FF06466368012B93
:1016B8001DD0022B2AD03D4B5B6813F00C0F34D0A1
:1016C80000F05AFF801B41F288339842F3D9032077
:1016D80062E0364A126812F4003FDED101205BE076
:1016E800324A126812F0007FD7D1012054E02F4B04
:1016F8005B6803F00C03042B17D000F03DFF801B40
:1017080041F288339842F2D9032045E0274B5B68C1
:1017180003F00C03082B08D000F02EFF801B41F2C9
:1017280088339842F2D9032036E01F4B1B6803F038
:101738000703AB420AD91C4A136823F007032B435B
:101748001360136803F00703AB422AD1236813F030
:10175800040F06D0154A536823F4E063E1680B438D
:101768005360236813F0080F07D0104A536823F416
:101778006053216943EAC1035360FFF727FF0B4B0E
:101788005B68C3F303130A4AD35CD840094B18605B
:10179800002000F0C1FE002070BD0120704701202C
:1017A800FAE70120F8E700BF0020024000100240DD
:1017B8007451000800000020014B1868704700BFF2
:1017C8000000002008B5FFF7F7FF044B5B68C3F380
:1017D8000223034AD35CD84008BD00BF0010024072
:1017E8008451000808B5FFF7E7FF044B5B68C3F3B3
:1017F800C223034AD35CD84008BD00BF0010024092
:101808008451000830B4036A23F001030362056AB7
:101818004268846924F073040B681C4325F00205B0
:101828008B682B43104DA84203D005F50065A842EC
:1018380005D123F00803CD682B4323F004030A4D98
:10184800A84203D005F50065A84205D122F44072EC
:101858004D6915438A692A43426084614A68426334
:10186800036230BC704700BF002C014030B4036AEB
:1018780023F480730362036A4268C46924F0730422
:101888000D682C4323F400738D6843EA0523124D39
:10189800A84203D005F50065A84206D123F40063E9
:1018A800CD6843EA052323F480630B4DA84203D097
:1018B80005F50065A84207D122F440524D6942EA75
:1018C80005128D6942EA05124260C4614A68C26322
:1018D800036230BC704700BF002C014030B4036A7B
:1018E80023F480530362036A4468C26922F4E6421F
:1018F8000D6842EA052223F400538D6843EA053354
:10190800094DA84203D005F50065A84204D124F486
:1019180080444D6944EA85144460C2614A6802649F
:10192800036230BC704700BF002C014010B4036A4A
:10193800046A24F001040462846924F0F00444EA8F
:10194800021223F00A030B438261036210BC704742
:1019580010B4036A23F0100303628469036A24F451
:10196800704444EA023223F0A00343EA011382617F
:10197800036210BC7047836823F0700341F00701CD
:1019880019438160704710B4846824F47F4442EAA4
:1019980003230B432343836010BC704710B50468CE
:1019A800A26822F070024B68134323F007030A6809
:1019B8001343A3604B68502B1ED00AD9602B21D04B
:1019C800702B05D10B698A68C9680068FFF7DBFFCF
:1019D80010BD402BFCD103681C6A1A6A22F0010270
:1019E8001A620268936923F0F003096943EA011354
:1019F800936103681C62EBE70A6989680068FFF76E
:101A080095FFE5E70A6989680068FFF7A1FFDFE746
:101A18007047022380F83D300268136843F00103E1
:101A28001360012380F83D30002070470268D368B6
:101A380043F00103D3600268136843F001031360A5
:101A480000207047704790F83C30012B7DD010B5CE
:101A58000446012380F83C30022380F83D300268B8
:101A6800936823F47F4323F0770393600B68402B3C
:101A780057D010D9702B3ED01FD8502B47D0602B91
:101A880032D1CA6849680068FFF762FF60212068A0
:101A9800FFF771FF28E0102B4DD008D9202B4FD02D
:101AA800302B21D130210068FFF765FF1CE0DBB93E
:101AB80000210068FFF75FFF16E0B3F5805F0ED0E6
:101AC800B3F5005F10D1CB684A6889680068FFF7F2
:101AD8005AFF2268936843F48043936004E00268E5
:101AE800936823F007039360012384F83D300020B6
:101AF80084F83C0010BDCB684A6889680068FFF725
:101B080042FF2268936843F077039360ECE7CA6862
:101B180049680068FFF70AFF50212068FFF72BFF8C
:101B2800E2E7CA6849680068FFF700FF40212068BB
:101B3800FFF721FFD8E710210068FFF71CFFD3E764
:101B480020210068FFF717FFCEE70220704738B55D
:101B580090F83C30012B18D00446012580F83C5001
:101B6800022380F83D30FFF719FF2268D36823F07D
:101B78004003D3602268D36823F48043D36084F899
:101B88003D50002084F83C0038BD0220FCE7704737
:101B980070477047704710B5044603681A6912F019
:101BA800020F11D0DA6812F0020F0DD06FF00202A6
:101BB8001A610123037703689B6913F0030F70D040
:101BC800FFF7E6FF0023237723681A6912F0040F52
:101BD80012D0DA6812F0040F0ED06FF004021A6106
:101BE8000223237723689B6913F4407F5FD0204644
:101BF800FFF7CEFF0023237723681A6912F0080F36
:101C080012D0DA6812F0080F0ED06FF008021A61CD
:101C1800042323772368DB6913F0030F4ED0204693
:101C2800FFF7B6FF0023237723681A6912F0100F15
:101C380012D0DA6812F0100F0ED06FF010021A618D
:101C4800082323772368DB6913F4407F3DD02046BF
:101C5800FFF79EFF0023237723681A6912F0010F0C
:101C680003D0DA6812F0010F36D123681A6912F02E
:101C7800800F03D0DA6812F0800F34D123681A6914
:101C880012F0400F03D0DA6812F0400F32D1236807
:101C98001A6912F0200F03D0DA6812F0200F30D141
:101CA80010BDFFF774FF2046FFF773FF8AE7204651
:101CB800FFF76DFF2046FFF76CFF9BE72046FFF715
:101CC80066FF2046FFF765FFACE72046FFF75FFF9A
:101CD8002046FFF75EFFBDE76FF001021A6120465C
:101CE80001F05AFFC1E76FF080021A61204600F048
:101CF800D5F9C3E76FF040021A612046FFF74AFFA3
:101D0800C5E76FF020021A61204600F0C6F9C7E760
:101D18000368244A904212D002F5006290420ED025
:101D2800B0F1804F0BD0A2F59832904207D002F55F
:101D38008062904203D002F58062904203D123F082
:101D480070034A681343174A904212D002F50062A2
:101D580090420ED0B0F1804F0BD0A2F5983290424D
:101D680007D002F58062904203D002F5806290426B
:101D780003D123F44073CA68134323F080034A69EC
:101D8800134303608B68C3620B688362054B9842F8
:101D980003D003F50063984201D10B690363012363
:101DA80043617047002C0140B0B110B5044690F86B
:101DB8003D3063B1022384F83D30214651F8040BCD
:101DC800FFF7A6FF012384F83D30002010BD80F8FE
:101DD8003C30FFF71DFEEDE701207047B0B110B5AC
:101DE800044690F83D3063B1022384F83D30214623
:101DF80051F8040BFFF78CFF012384F83D300020D5
:101E080010BD80F83C30FFF71DFEEDE7012070475C
:101E180030B4036A23F010030362036A44688269DA
:101E280022F4E6420D6842EA052223F020038D6879
:101E380043EA0513114DA84203D005F50065A842F1
:101E480006D123F08003CD6843EA051323F040034D
:101E58000A4DA84203D005F50065A84207D124F42D
:101E680040644D6944EA85048D6944EA8504446008
:101E780082614A688263036230BC7047002C01406B
:101E880038B590F83C30012B66D00D460446012346
:101E980080F83C30022380F83D300C2A1AD8DFE85D
:101EA80002F00719191920191919341919194700B5
:101EB8000068FFF7A7FC2268936943F00803936161
:101EC8002268936923F0040393612268936929695E
:101ED8000B439361012384F83D30002084F83C00D3
:101EE80038BD0068FFF794FF2268936943F40063E4
:101EF80093612268936923F48063936122689369EC
:101F0800296943EA01239361E4E70068FFF7AEFC1F
:101F18002268D36943F00803D3612268D36923F0A8
:101F28000403D3612268D36929690B43D361D1E7DC
:101F38000068FFF7D3FC2268D36943F40063D361D8
:101F48002268D36923F48063D3612268D36929693D
:101F580043EA0123D361BDE70220C1E710B401239E
:101F680003FA01F4036A23EA04030362036A8A405A
:101F78001343036210BC704710B504460122006881
:101F8800FFF7ECFF2368094A934203D002F5006289
:101F9800934203D15A6C42F400425A64226813688F
:101FA80043F001031360002010BD00BF002C014066
:101FB80010B4042303FA01F4036A23EA0403036256
:101FC800036A8A401343036210BC704710B5044685
:101FD80004220068FFF7ECFF2268536C43F40043C7
:101FE80053642268136843F001031360002010BD96
:101FF80090F83C30012B25D0012380F83C30CB6889
:1020080023F440738A68134323F480634A681343B4
:1020180023F400630A68134323F480530A691343C3
:1020280023F400534A69134323F480438A69134312
:1020380023F40043134302685364002380F83C30C0
:10204800184670470220704790F83C30012B22D088
:1020580030B4012280F83C20022380F83D30046827
:10206800636823F070036360046863680D682B433A
:1020780063600468A36823F08003A3600468A3680E
:1020880049680B43A36080F83D20002380F83C306A
:10209800184630BC704702207047704770470000F0
:1020A800034690F82420012A20D0012280F8242019
:1020B8000268906810F0010F07D10D48806810F091
:1020C800010F02D10B48824208D09A6A42F02002DE
:1020D8009A620120002283F824207047506820F477
:1020E80070200968084350600020F3E70220704719
:1020F8000028014000240140074AD36823F4E06324
:102108001B041B0C000200F4E060184340F0BF60A1
:1021180040F40030D060704700ED00E030B4174B59
:10212800DB68C3F30223C3F10704042C28BF04248B
:102138001D1D062D01D9033B00E000234FF0FF359C
:1021480005FA04F421EA0401994005FA03F322EAA6
:1021580003031943002809DB0901C9B200F16040F3
:1021680000F5614080F8001330BC704700F00F00A4
:102178000901C9B2024B1954F6E700BF00ED00E0AF
:1021880014ED00E000F01F02400901239340024AC9
:1021980042F82030704700BF00E100E00138B0F19C
:1021A800807F0AD2064B5860064AF02182F8231035
:1021B8000020986007221A6070470120704700BF0E
:1021C80010E000E000ED00E0042805D0054A13689F
:1021D80023F0040313607047024A136843F00403B2
:1021E8001360704710E000E0704708B5FFF7FCFF88
:1021F80008BD0000F0B482B000263546A6E0002BEA
:102208005ED0012B10D1CE680EE06E4FBB4257D086
:102218004ED96D4FBB4253D007F58037BB424FD0E4
:10222800A7F58017BB424BD0FF2A5DD88446FF2A0A
:102238005DD8AC00DCF800300F27A74023EA07037D
:1022480006FA04F42343CCF800304B6813F0805F9F
:102258007BD05E4B9C6944F001049C619B6903F050
:1022680001030193019BAC08A71C594B53F827C0E5
:1022780005F003039F000F23BB402CEA030C554BCA
:1022880098423AD003F58063984278D003F580638A
:10229800984276D003F58063984274D003F5806342
:1022A800984272D003F58063984224D0062325E033
:1022B800A7F58017BB4203D007F58037BB42B3D1DF
:1022C8008B687BB1012B08D044610826ACE7CE6847
:1022D8000836A9E7CE680C36A6E704610826A3E706
:1022E8000026A1E704269FE700F1040C9FE7A5F16B
:1022F8000804A4009EE7052300E00023BB4043EA4E
:102308000C030234324F47F824304B6813F4803FF3
:102318003DD0314C2368134323604B6813F4003FCE
:102328003BD02D4C6368134363604B6813F4801FE4
:1023380039D0294CA3681343A3604B6813F4001FDA
:1023480037D0254CE3681A43E26001350F2D36D8A3
:102358000124AC400A6822409442F6D14B68122B03
:10236800B8D03FF652AF022BB1D07FF648AF032B5F
:10237800B6D0112B7FF458AFCE68043654E701234A
:10238800BCE70223BAE70323B8E70423B6E7124CF5
:10239800236823EA02032360BFE70F4C636823EA3C
:1023A80002036360C1E70C4CA36823EA0203A3603D
:1023B800C3E7094CE36823EA0202E260C5E702B01A
:1023C800F0BC7047000021100000311000100240DE
:1023D80000000140000801400004014083681942E0
:1023E80001D001207047002070470AB10161704791
:1023F800090401617047C3685940C1607047000013
:1024080070B582B00446036813F0010F34D03E4B18
:10241800DB6913F0805F48D13B4BDA6942F08052A8
:10242800DA61DB6903F080530193019B0125374B87
:102438001B6813F4807F3AD0334B1B6A13F4407344
:1024480011D0626802F440729A420CD02E4A136A84
:1024580023F440702E4901260E6000260E6010629B
:1024680013F0010F37D1284A136A23F440736168C7
:102478000B431362002D3FD1236813F0020F06D0DF
:10248800214A536823F44043A1680B4353602368EF
:1024980013F0100F35D01C4A536823F48003616988
:1024A8000B435360002002B070BD0025BFE7174AF8
:1024B800136843F48073136000F05EF80646134B0C
:1024C8001B6813F4807FB7D100F056F8801B64288E
:1024D800F5D90320E7E700F04FF806460A4B1B6AD8
:1024E80013F0020FBFD100F047F8801B41F2883388
:1024F8009842F3D90320D6E7D36923F08053D361F8
:10250800BAE70020CFE700BF00100240007000408B
:10251800400442427047000010B50446074B186853
:10252800074BA3FB00308009FFF738FE0022214645
:102538004FF0FF30FFF7F2FD002010BD0000002033
:10254800D34D621008B5074A136843F010031360AF
:102558000320FFF7D1FD0020FFF7DEFFFFF7DAFFCA
:10256800002008BD00200240024A136801331360AE
:10257800704700BFFC000020014B1868704700BF7F
:10258800FC00002030B583B00190FFF7F5FF054649
:10259800019CB4F1FF3F00D00134FFF7EDFF401B71
:1025A800A042FAD303B030BD7047000030B482B007
:1025B8000023019390F82430012B00F08B80024611
:1025C800012380F824304B68062B29D80568686BEE
:1025D80003EB8303053B1F249C4020EA04000C689E
:1025E80004FA03F303436B630B68092B38D91568A6
:1025F800E86803EB43031E3B07249C4020EA0400E1
:102608008C6804FA03F30343EB600B68103B012B5F
:1026180034D90020002382F8243002B030BC70473F
:102628000C2B0ED80568286B03EB8303233B1F2470
:102638009C4020EA04000C6804FA03F303432B636C
:10264800D2E70568E86A03EB8303413B1F249C40FB
:1026580020EA04000C6804FA03F30343EB62C3E7BF
:102668001568286903EB430307249C4020EA04000B
:102678008C6804FA03F303432B61C6E71368164812
:10268800834205D0936A43F0200393620120C1E797
:10269800986810F4000F1BD1986840F40000986007
:1026A8000B68102B01D00020B4E70C4B1B680C49B9
:1026B800A1FB03139B0C03EB83035900019102E078
:1026C800019B013B0193019B002BF9D10020A1E75D
:1026D80000209FE70220A0E700240140000000201E
:1026E80083DE1B4330B583B00023019303689A68E7
:1026F80012F0010F2DD19A6842F001029A60164B30
:102708001B68164AA2FB03239B0C0193019B1BB178
:10271800019B013B0193F9E70446FFF72DFF0546AE
:1027280023689B6813F0010F11D1FFF725FF401BA9
:102738000228F5D9A36A43F01003A362E36A43F0C1
:102748000103E362002384F82430012002E0002022
:1027580000E0002003B030BD0000002083DE1B43F2
:1027680090F82430012B6BD010B50446012380F873
:102778002430FFF7B7FF024600285CD1A36A23F490
:10278800407323F0010343F48073A36221682E4B46
:10279800994228D0A36A23F48013A3624B6813F4E8
:1027A800806F05D0A36A23F4405343F48053A36297
:1027B800A36A13F4805F2CD0E36A23F00603E36274
:1027C800002384F8243023686FF00201196023681D
:1027D800996801F46021B1F5602F1DD0996841F422
:1027E800801199602AE0A3F580635B6813F4702F69
:1027F800D0D0A36A43F48013A362144B5B6813F42C
:10280800806FD5D0A36A23F4405343F48053A36266
:10281800CEE70023E362D3E70B498B4204D09968E3
:1028280041F4A001996009E0A1F58061496811F4BB
:10283800702FD3D1F3E7002384F82430104610BD5D
:1028480002221046704700BF0028014000240140C2
:1028580038B503689A6812F0010F01D1002038BD1D
:1028680004469A6822F001029A60FFF785FE054641
:1028780023689B6813F0010F0ED0FFF77DFE401B05
:102888000228F5D9A36A43F01003A362E36A43F070
:102898000103E3620120E2E70020E0E7002800F0FE
:1028A8008680F8B50446836A002B50D02046FFF78F
:1028B800CFFFA36A13F0100373D1002871D1A26A65
:1028C80022F4885222F0020242F00202A2626268F6
:1028D800266838498E4240D0E1690A43E16842EAF5
:1028E8004102A568B5F5807F02D0012D3CD01D4678
:1028F8006769012F3BD0716821F4694129437160F0
:102908002568AE682C4931401143A960A168B1F52A
:10291800807F01D0012902D12369013B1B0525686D
:10292800E96A21F470010B43EB6223689968234B31
:102938000B409A422CD0A36A23F0120343F01003F1
:10294800A362E36A43F00103E36201202EE0C3625D
:1029580080F82430FFF728FEA8E7E169B1F5402F99
:10296800BBD14FF40021B8E74FF48075C0E731B907
:10297800A169013945EA413141F40065BBE7A16A23
:1029880041F02001A162E16A41F00101E162B2E790
:102998000023E362A36A23F0030343F00103A36265
:1029A80004E0A36A43F01003A3620120F8BD0120EC
:1029B800704700BF003C0140FDF7E1FFFE0E1FFF1E
:1029C8002DE9F84305460268136923F44053C168AA
:1029D8000B43136183680269134342691343016817
:1029E800CA6822F4B05222F00C021343CB6002688A
:1029F800536923F4407381690B4353610268594B4F
:102A08009A4257D0FEF7DEFE00EB800000EB800014
:102A18006C68A400B0FBF4F4534FA7FB04346409BA
:102A28002601FEF7CFFE00EB800000EB80006C680B
:102A3800A400B0FBF4F9FEF7C5FE00EB800000EB44
:102A480080006C68A400B0FBF4F4A7FB04346409AC
:102A58004FF0640808FB149424013234A7FB0434B3
:102A6800640904F0F0043444FEF7ACFE00EB800087
:102A780000EB80006E68B600B0FBF6F6FEF7A2FE2B
:102A880000EB800000EB80006B689B00B0FBF3F06C
:102A9800A7FB0030400908FB10684FEA081808F146
:102AA8003208A7FB0837C7F343172B6827449F60F2
:102AB800BDE8F883FEF796FE00EB800000EB80008F
:102AC8006C68A400B0FBF4F4274FA7FB0434640936
:102AD8002601FEF787FE00EB800000EB80006C68A3
:102AE800A400B0FBF4F9FEF77DFE00EB800000EBDC
:102AF80080006C68A400B0FBF4F4A7FB04346409FC
:102B08004FF0640808FB149424013234A7FB043402
:102B1800640904F0F0043444FEF764FE00EB80001E
:102B280000EB80006E68B600B0FBF6F6FEF75AFEC2
:102B380000EB800000EB80006B689B00B0FBF3F0BB
:102B4800A7FB0030400908FB10684FEA081808F195
:102B58003208A7FB0837C7F343172B6827449F6041
:102B6800A6E700BF003801401F85EB51704758B3F6
:102B780010B5044690F839300BB3242384F8393063
:102B88002268D36823F40053D3602046FFF718FF68
:102B98002268136923F4904313612268536923F070
:102BA8002A0353612268D36843F40053D36000209A
:102BB800E063202384F8393084F83A3010BD80F877
:102BC8003830FFF7D3FFD8E70120704700283ED000
:102BD80010B4034600681F4A90422DD81E4A02448A
:102BE8001E49A1FB0212120992001A641C4ADA63F8
:102BF800022283F82120016821F47F5121F030015D
:102C08005A689C682243DC6822431C6922435C6939
:102C180022439C692243DC6922430A430260002064
:102C28009862D862186358639863012283F8212058
:102C380083F8200010BC70470A4A02440749A1FBE8
:102C48000212120992001A64074ADA63D0E70120D7
:102C5800704700BF07040240F8FFFDBFCDCCCCCCC5
:102C680000000240F8FBFDBF000402400F4B1A6849
:102C780042F001021A6059680D4A0A405A601A68FF
:102C880022F0847222F480321A601A6822F48022B8
:102C98001A605A6822F4FE025A604FF41F029A60C2
:102CA800044B4FF000629A60704700BF001002406A
:102CB8000000FFF800ED00E030B589B02A4B5A69F2
:102CC80042F001025A615A6902F001020192019A26
:102CD8009A6942F008029A619A6902F0080202921F
:102CE800029ADA6942F48022DA61DB6903F480230C
:102CF8000393039B1D481E4D05604FF4E133436069
:102D080000248460C46004618461C4610823436151
:102D1800FFF72DFF6B6943F080036B610123069376
:102D28004FF480630493022305930323079304A9B4
:102D38001048FFF75FFA104805F5DC351C350560CB
:102D48001023436084608023C3600461446184610C
:102D5800C461FFF73BFF094BAB606C60084B702206
:102D68005A6009B030BD00BF001002408801002041
:102D780000480040000C01408C020020044800403C
:102D8800000002402DE9F04F89B0884B9A6942F063
:102D980004029A619A6902F004020192019A9A69FE
:102DA80042F008029A619A6902F008020292029AB5
:102DB8009A6942F010029A619B6903F01003039329
:102DC800039B4FF00009CDF81890022607964FF0A4
:102DD800200ACDF810A0764B059304A97548FFF793
:102DE80009FA4023049304A97248FFF703FA4FF045
:102DF8008008CDF8108004A96E48FFF7FBF94FF45E
:102E08008064049404A96C48FFF7F4F94FF4006354
:102E1800049304A96848FFF7EDF94FF48055049529
:102E280004A96548FFF7E6F9CDF814900495012741
:102E3800069704A96148FFF7DDF9CDF818900496C4
:102E480004A95E48FFF7D6F905974FF00409CDF8B5
:102E5800109004A95748FFF7CDF9102504950DEBFC
:102E680005015648FFF7C6F9CDF810A00DEB05018E
:102E78005248FFF7BFF90323059304970DEB0501AB
:102E88004D48FFF7B7F904970DEB05014B48FFF7DD
:102E9800B1F94FF0080BCDF810B00DEB050146481D
:102EA800FFF7A8F904960DEB05014348FFF7A2F9CF
:102EB80004950DEB05014048FFF79CF9CDF810A0EB
:102EC8000DEB05013C48FFF795F9CDF810900DEB97
:102ED80005013948FFF78EF9CDF810B00DEB050163
:102EE8003648FFF787F9CDF810900DEB0501334808
:102EF800FFF780F90596402304930DEB05012E4852
:102F0800FFF778F9CDF810800DEB05012A48FFF797
:102F180071F94FF48079CDF810900DEB0501264832
:102F2800FFF768F9CDF810800DEB05012348FFF78E
:102F380061F904970DEB05011E48FFF75BF904964C
:102F48000DEB05011B48FFF755F9CDF810900DEB77
:102F580005011A48FFF74EF94FF4007304930DEB7F
:102F680005011648FFF746F904940DEB05011348CF
:102F7800FFF740F94FF4005304930DEB05010D489A
:102F8800FFF738F94FF4804304930DEB0501094826
:102F9800FFF730F94FF4004304930DEB05010548A2
:102FA800FFF728F909B0BDE8F08F00BF0010024014
:102FB80000003110000C01400010014000080140E1
:102FC8002DE9F04F99B0754B9A6942F400629A6105
:102FD8009A6902F400620192019A9A6942F40052D5
:102FE8009A619B6903F400530293029B6C4EDFF8CD
:102FF800B891C6F80090002474604FF02008C6F815
:1030080008804FF4FA6BC6F80CB034617461B4618F
:103018003046FEF7E3FE10231693179416A93046A0
:10302800FFF712F860230F93109411940827129752
:10303800139414944FF40073159322460FA9304645
:10304800FEF71EFF04220FA93046FEF719FF3A4685
:103058000FA93046FEF714FF4FF4006308934FF4AE
:10306800806309930A94CDF82C800C940D940E94E7
:103078000DEB08013046FEF7BBFF4A4DDFF82CA1E7
:10308800C5F800A06C60C5F80880C5F80CB02C61C4
:103098006C61AC612846FEF7A1FECDF8588080230C
:1030A800179316A92846FEF7CFFF04940523039328
:1030B80003A92846FEF74BFD60230F931094119443
:1030C8001297139414944FF40073159322460FA982
:1030D8002846FEF7D5FE04220FA92846FEF7D0FEA3
:1030E8003A460FA92846FEF7CBFE4FF40063089333
:1030F8004FF4806309930A94CDF82C800C940D94B6
:103108000E940DEB08012846FEF772FFDAF84430FA
:1031180023F40043CAF84430D9F8443023F4004378
:10312800C9F8443021462846FEF726FF04212846E0
:10313800FEF722FF39462846FEF71EFF214628469D
:10314800FEF744FF04212846FEF740FF394628468B
:10315800FEF73CFF21463046FEF70EFF04213046BD
:10316800FEF70AFF39463046FEF706FF214630468D
:10317800FEF72CFF04213046FEF728FF394630467B
:10318800FEF724FF2B6801221A633268136843F0A4
:103198000103136019B0BDE8F08F00BF00100240B2
:1031A8004C02002060040020002C01400034014043
:1031B8002DE9F04186B0414EB36943F40073B36121
:1031C800B36903F400730093009B3D4C3D4B2360AF
:1031D8004FF48073A3600025E56065614FF44023D8
:1031E800E36165604FF00508C4F810802046FFF7DA
:1031F80055FB354A536843F4802353604FF4C0238A
:10320800059305A92046FEF74BFF012304930E22E0
:103218000292039302A92046FFF7C8F902950227F4
:10322800039702A92046FFF7C1F904970B270297D5
:103238000323039302A92046FFF7B8F90C2302934E
:103248000423039302A92046FFF7B0F90723049348
:1032580010230293CDF80C8002A92046FFF7A6F9A7
:103268002268936843F4000343F48073936093687F
:1032780043F001039360736943F001037361736959
:1032880003F001030193019B104B1D60C3F80480F8
:103298000F4A9A600F4ADA6040F6A2221A601A684A
:1032A80042F001021A602A4629463846FEF736FFE0
:1032B8003846FEF767FF06B0BDE8F081001002400F
:1032C800980300200024014000000140080002404B
:1032D8004C2401400C040020F0B585B0284B9A69B5
:1032E80042F480629A619B6903F480630093009BB7
:1032F800244C254B23604FF48073A3600023E360C4
:1033080063614FF46022E26163600526266120460E
:10331800FFF7C4FA012303930F220192029301A934
:103328002046FFF743F90D2301930225029501A9D1
:103338002046FFF73BF903950A23019303270297D9
:1033480001A92046FFF732F90195042302930DEBFA
:1033580003012046FFF72AF90723039301970296F2
:1033680001A92046FFF722F923689A6842F480727F
:103378009A609A6842F001029A6005B0F0BD00BFF9
:1033880000100240C801002000280140FEE70000AC
:1033980000B589B0002211461D20FEF7BFFE1D2092
:1033A800FEF7F0FE1E4BDA6942F00202DA61DB69D1
:1033B80003F002030193019B1A481B4B03604FF66D
:1033C800FF134360002383606422C260036183614A
:1033D800FEF7EAFCA8B94FF48053049304A91148F6
:1033E800FEF731FB90B900230293039302A90D481D
:1033F800FEF72AFE78B90B48FEF718FB09B05DF80E
:1034080004FB4FF441710948FFF7C0FF40F20A314D
:103418000648FFF7BBFF40F211310448FFF7B6FF3B
:1034280000100240D0020020000400408C51000827
:1034380038B5144B00221A70134B1B681333262B14
:103448001AD81546114B1A7000E00135072D0DDC0E
:103458000F4B1D700024312CF7DC0E4B1B6800222B
:103468005A620120FFF78EF80134F4E70022202188
:103478000948FEF7BAFFFEE7084B4FF47A721A6064
:1034880038BD00BFC4000020C0040020B8000020E0
:10349800B4000020D002002000080140B000002045
:1034A80030B597B002250C95012310931023119382
:1034B8001395002414944FF4601315930CA8FDF78A
:1034C80095FE0F230793089509944FF480630A9398
:1034D8000B94294607A8FEF7B1F801954FF440432D
:1034E800039301A8FEF78CFFFEF766F9084BA3FBD0
:1034F80000308009FEF752FE0420FEF765FE2246E2
:1035080021464FF0FF30FEF709FE17B030BD00BF6F
:10351800D34D6210000000002DE9F04F83B0FFF793
:1035280011F8B74CA36943F00103A361A36903F041
:1035380001030193019B0320FEF7DEFD00221146E3
:103548006FF00B00FEF7EAFD002211466FF00A004B
:10355800FEF7E4FD002211466FF00900FEF7DEFDDC
:10356800002211466FF00400FEF7D8FD0022114634
:103578006FF00300FEF7D2FD002211466FF0010044
:10358800FEF7CCFD002211464FF0FF30FEF7C6FDD6
:10359800FFF786FF636923F001036361FFF7F2FB1E
:1035A800FFF70EFDFFF704FEFFF796FE012220212C
:1035B8009448FEF71AFF9448FFF7D2F89348FFF7AC
:1035C800CFF8082405E0924B1C706420FEF7DAFF60
:1035D800013C002CF7DA4FF0000A8D4B83F800A06D
:1035E800012204218B48FEF700FF00F015FFFFF7CA
:1035F80063FB894B1B8A0124884B1C70FFF7C8FEAC
:10360800874B1C70D346A2E10020BDE1824B5B8A48
:103618009BB2B3F5805F11D27F4B5B8A9BB2B3F547
:10362800006F10D37C4B588AA0F50060FDF788FB2B
:103638007C49FDF78DFCFDF79DFD01E04FF4967088
:10364800794B1860A2E10020FAE70020B8E1724B3C
:10365800DB899BB2B3F5805F11D26F4BDB899BB2DC
:10366800B3F5006F10D36C4BD889A0F50060FDF757
:1036780067FB6E49FDF76CFCFDF77CFD01E04FF43C
:10368800C8706B4B18609DE10020FAE74FF47A7818
:1036980032463B4620462946FCF7D0FD04460D46F7
:1036A8000022644BFDF710FA88B953A3D3E900232D
:1036B80020462946FDF7EAF900285ED1204629462A
:1036C800FDF70CFA044604E0DFF89C81E0E74FF4CC
:1036D8007A740AF13103A34215DBAAF1310AA24533
:1036E80011DC0BF1310343450DDBABF1310BC34565
:1036F80009DC514B1B68042B05D8504BC3F80080DC
:1037080063424F4A13604F4B1A684F4BA3FB021397
:10371800DB0803EB830303EB83039A422FD00221D8
:103728003848FEF75BFE30B1484B1B681BB9484B65
:103738001D68002D48D0474B1D6847492846FDF7AE
:10374800F1FC28B1454B1B681333262B40F29480BB
:1037580043492846FDF7E6FC002800F090803E49E2
:103768002846FDF7FDFC002800F08980284B05223B
:103778001A703C4B06221A7089E03B4CA9E7264B8D
:103788001B8A3A4DE96809B2002000F003FEE96A95
:1037980009B2012000F0FEFD696909B2022000F0BB
:1037A800F9FD696B09B2032000F0F4FD3049294B9B
:1037B8001868FDF719FBFDF7DDFC01B2042000F0E5
:1037C800E9FD00F0EDFDAAE7144B00221A70022172
:1037D8000C48FEF703FE58B1264B1B6800225A62BC
:1037E8006E1C05EBD5756810FEF7CCFE3546EEE786
:1037F800FFF71EFE9FE700BF0000000000408FC0DB
:10380800001002400008014098030020C801002071
:10381800B4000020000C01400C040020C40000206B
:10382800AD000020BF58DA40D00400208FC2A3406A
:10383800C804002000408F4004000020D800002069
:10384800D4000020A40400201F85EB51E0000020D4
:10385800DC00002008000020CCCC0642C004002078
:1038680000000C42B800002018FCFFFFA80500204B
:103878000000C842D0020020FFF7DAFD07E0AE4B97
:103888001B88002B00F03081013BAB4A138084EA8F
:10389800E473A3EBE473322B06DC88EAE873A3EB4A
:1038A800E873322B40F32681A44B00221A60A34B05
:1038B8001B68A34A93420CD9A24A12784AB9A14A72
:1038C80003211170A04A012111709B4A4FF47A71AB
:1038D80011809E4A93420CD99A4A12784AB9994A59
:1038E80002211170984A01211170934A4FF47A719C
:1038F8001180974A934200F20281964B1B68002B75
:103908001FDD013B934A1360B3F5FA6F09DC8D4A5A
:10391800032111708C4A01211170874A4FF47A7182
:103928001180B3F57A7F09DC864A02211170864A34
:1039380001211170804A4FF47A711180002B40F3F5
:10394800E480854B1B6800225A62A246C3460520C4
:10395800FEF718FE814B5B8A9BB2B3F5006FBFF48C
:1039680055AE7E4B5B8A9BB2B3F5006F3FF64CAE0B
:103978007A4B5A8A588AA0F50060FDF7E1F9784930
:10398800FDF7E6FAFDF7F6FB764B1860734BDB891B
:103998009BB2B3F5006FBFF45AAE704BDB899BB294
:1039A800B3F5006F3FF651AE6C4BDA89D889A0F5B4
:1039B8000060FDF7C5F96C49FDF7CAFAFDF7DAFBB7
:1039C8006A4B1860654AD389D389694B01211970FC
:1039D800644B1C6864421C60D3899BB2B3F5FA6FD0
:1039E80094BF0023012363490B70538A9BB2B3F53C
:1039F800FA6F94BF002301235F4A13705F4B1C606A
:103A08005A4B1D685E4B1D605E4B00221A60DFF842
:103A18008491D9F80000FCF75DFD3FA3D3E90023AA
:103A2800FCF7C2FD06460F462046FCF753FD3CA3B3
:103A3800D3E90023FCF7B8FD02460B463046394669
:103A4800FCF7FCFBFDF74AF88046C9F800004E4C2D
:103A58002068FCF73FFD30A3D3E90023FCF7A4FD61
:103A680006460F462846FCF735FD2DA3D3E900236B
:103A7800FCF79AFD02460B4630463946FCF7DEFB5A
:103A8800FDF72CF82060FCF725FD00223F4BFCF7E2
:103A98008BFD04460D464046FCF71CFD22A3D3E9E6
:103AA8000023FCF781FD06460F4602460B462046DA
:103AB8002946FCF7C1FB804689460022344BFDF7B6
:103AC80003F800287FF4E2AD19A3D3E900234046A8
:103AD8004946FCF7DBFF00287FF4F6AD404649462F
:103AE800FCF7FCFF8046D3E50023164A1370164AFC
:103AF8001370CCE6114A136801331360D7E60F4BF5
:103B080000221A60FFF794FCF7E6124B00221A60B5
:103B1800FFF78EFC15E700BFCDCCCCCCCCCCEC3F6E
:103B28009A9999999999B93F666666666666E63F75
:103B38000000000000408FC0AE000020A404002058
:103B48006A040100B4000020B8000020751E0100BE
:103B580080380100B0000020D00200200C040020B2
:103B68000E74DA40D00400200AD7A340C80400200D
:103B7800AC000020A8040020A0040020CC040020F1
:103B8800B404002004000020C00400200000E03F2E
:103B980000408F40B804002008B51A4B1B78002B52
:103BA8002BD0194B00225A639A63DA63596C21F4BB
:103BB80000415964A3F500635A639A63DA63596C48
:103BC80021F400415964114B1A60114B1A60114BD2
:103BD8001A70114B06211960104B1A60104B1A60AD
:103BE800104B1A60104B1A60104B1A60104B1A6079
:103BF80020211048FEF7F9FBCFE7024B01221A708B
:103C080008BD00BFAD00002000340140B80400200A
:103C1800C0040020C400002004000020D4000020BC
:103C2800D8000020DC000020E0000020CC040020A8
:103C3800B404002000080140774B02225A60774BF9
:103C48001B68B3F57A7F5EDB2DE9F041744B1A6887
:103C5800744BA3FB02139B094FF47A7101FB1323E6
:103C68000BBB714C2068FCF747FC65A3D3E9002324
:103C7800FCF79AFC06460F466C4B9889FDF75CF8F2
:103C88006B49FDF7B1F8FCF737FC5FA3D3E90023D4
:103C9800FCF78AFC02460B4630463946FCF7CEFA5A
:103CA800FCF744FF2060614B5889624B1C68001B7D
:103CB800FCF710FC56A3D3E90023FCF775FC00229F
:103CC8000023FCF7E3FE002852D1584B5889001B0B
:103CD800FCF700FC4EA3D3E90023FCF765FC0022A7
:103CE800554BFCF7F1FE002852D1544B1B68052BAD
:103CF8004ED8534B1B78002B4AD0524A536C43F48E
:103D08000043536449E00133444A1360474A9088AA
:103D18004D490B68034403EBD3735B100B60D088E9
:103D28004A490B68034403EBD3735B100B6010889C
:103D380047490B68034403EBD3735B100B6050884F
:103D480044490B68034403EBD3735B100B60508941
:103D580038490B68034403EBD3735B100B6011897C
:103D68003D4A13680B4403EBD3735B101360704731
:103D78002E4B5889001BFCF7ADFB25A3D3E9002384
:103D8800FCF712FC0022354BFCF780FE0028ACD073
:103D98002C4A536C23F400435364244B18892E4B4C
:103DA8001C68001BFCF796FB19A3D3E90023FCF75A
:103DB800FBFB00220023FCF769FE002852D11B4BB5
:103DC8001889001BFCF786FB11A3D3E90023FCF735
:103DD800EBFB0022184BFCF777FE002852D1174B5B
:103DE8001B68052B4ED8164B1B78002B4AD01C4A53
:103DF800536C43F40043536449E000BFAFF30080C1
:103E0800AE47E17A14AEEF3F7B14AE47E17A843FC8
:103E18007B14AE47E17A943F00000240C8000020BE
:103E2800BC000020D34D6210080000200C040020C4
:103E380017B9CE3C0C00002000002E4004000020E2
:103E4800C4000020003401401400002018000020A5
:103E58001C000020200000201000002000002EC0C0
:103E6800002C0140904B1889001BFCF733FB8CA3F6
:103E7800D3E90023FCF798FB00228C4BFCF706FEE5
:103E88000028ACD08A4A536C23F400435364894910
:103E98008B6813F0200F0CBF012300238A6812F0EF
:103EA800400F0CBF01220022896811F0800F0CBF5F
:103EB800012500258049886810F4806F0CBF012017
:103EC80000208C6814F4006F0CBF0124002489685A
:103ED80011F4805F02EB450203EB4203774EF35C7B
:103EE80077490B600B6803F102030B600D68754B93
:103EF80083FB0572A2EBE57202EB42024FEA42072E
:103F0800A5EB07020A600CBF02220022224400EB44
:103F18004202B05C6C4A1060106802301060106891
:103F280083FB0043A3EBE07303EB43035C00031B39
:103F3800136009685C488388644A12689A1AC388BF
:103F4800634800681B1A052934D8DFE801F0032309
:103F580026292C2FD31A5F4A13605F4A136801334E
:103F680013605E4A14684CB35D4AA2FB0312120B3D
:103F78005C4909680131B2FBF1F001FB1022EAB992
:103F8800B3FBF4F204FB1233EBB910215648FEF7E9
:103F980032FA18E04F4B1A60DFE74E4B1A60DCE745
:103FA8004C4A1360D9E74B4A1360D6E79B1A494A33
:103FB8001360D2E7474B00221A60CEE70022102197
:103FC8004948FEF712FA494B18683D4B1B68052B08
:103FD80028D8DFE803F00312171B1F23C0F1000CD9
:103FE80004461846424B1968374B1B68052B50D8B6
:103FF800DFE803F01D3D4145494C044640424FF07F
:10400800000CEFE7844640420024EBE74442844634
:104018000020E7E744424FF0000CE3E7C0F1000C52
:104028000024DFE74FF0000C64466046DAE74D42B3
:104038000F4619462D4B1B68002B40F3A1802D4BD2
:104048001E681F4B1B6805331E4A82FB03E2A2EB66
:10405800E37202EB42024FEA420EA3EB0E02052A7C
:1040680000F28980DFE802F0486E73787D820F469F
:1040780049420025DEE70D4649420027DAE74F426C
:104088000D460021D6E74F420025D3E74D420027D1
:10409800D0E700252F462946CCE700BFAFF30080C4
:1040A8007B14AE47E17A943F0C04002000002EC038
:1040B800002C0140000C01400010014098510008FC
:1040C800CC000020ABAAAA2AD000002014000020AF
:1040D80018000020C0000020BC000020B400002010
:1040E8005917B7D1B800002000080140D4000020BB
:1040F800D8000020DC000020C6F10008B6461646AD
:10410800304474440CEB08069A4B1B68002B40F3B0
:10411800A180994B1B68994A126802F1050C984ACC
:1041280082FB0CE2A2EBEC7202EB42024FEA420E77
:10413800ACEB0E02052A00F28880DFE802F0586D29
:1041480072777C81B64676424FF00008D8E7B046D1
:1041580076424FF0000ED3E7C6F1000EB0460026B7
:10416800CEE7C6F1000E4FF00008C9E7C6F1000817
:104178004FF0000EC4E74FF00008C6464646BFE7BA
:10418800804B1E68C6F1000E7F4B1A6801327C4BCB
:1041980083FB0283A3EBE27303EB43034FEA430879
:1041A800A2EB0803052B1AD8DFE803F0031E060A62
:1041B8000E14B0461E46A3E7F0464FF0000E9FE7E8
:1041C800F046B64600269BE7334676469E464FF0B5
:1041D800000895E7B04676464FF0000E90E74FF09E
:1041E8000008C64646468BE74FF0000888E7C3F14B
:1041F80000089E461346194407EB0E0205EB080318
:1042080040F2DE35A8425EDCA5F2BC75A842B8BF14
:10421800284600F57A7558E09E465B424FF0000844
:10422800E9E798465B424FF0000EE4E7C3F1000E61
:1042380098460023DFE7C3F1000E4FF00008DAE7E5
:10424800C3F100084FF0000ED5E74FF00008C6464E
:104258004346D0E7484B1B68C3F1000E474A126833
:104268000132DFF81CC18CFB028CACEBE27C0CEB5E
:104278004C0C4FEA4C08A2EB080CBCF1050F1AD8FD
:10428800DFE80CF0031E060A0E1498466346B2E7F0
:10429800F0464FF0000EAEE7F0469E460023AAE730
:1042A8001A46734696464FF00008A4E798467346A8
:1042B8004FF0000E9FE74FF00008C64643469AE7C6
:1042C8004FF0000897E740F2C6753048456340F262
:1042D800DE30844207DCA0F2BC708442B8BF0446DA
:1042E80004F57A7401E040F2C6742848846340F209
:1042F800DE30864207DCA0F2BC70B042B8BF304660
:1043080000F57A7001E040F2C670204CE06340F29C
:10431800DE30814207DCA0F2BC708142B8BF0146A2
:1043280001F57A7101E040F2C6711948416340F223
:10433800DE318A4207DCA1F2BC718A42B8BF0A4664
:1043480002F57A7201E040F2C67211498A6340F2BE
:10435800DE32934207DCA2F2BC729342B8BF134626
:1043680003F57A7301E040F2C673094AD363BDE8E6
:10437800F08100BFD8000020E0000020D00000201D
:10438800ABAAAA2ADC000020CC000020003401409F
:10439800002C0140014B23F810107047380500200D
:1043A800184B1B6803B9704730B585B0164D6422A9
:1043B8000021284600F086FA14490A884B88888824
:1043C80000B2CC8824B2098909B202910194009004
:1043D8001BB212B20E49284600F07CFA0D4B5B68FE
:1043E8006BB90C4C236823F0010323602846FBF7C4
:1043F80017FF6060E560236843F00103236005B0A0
:1044080030BD00BF24000020D4040020380500205F
:10441800A05100081C00024070B582B0304C402208
:104428000021204600F04EFA2E4D60220021284639
:1044380000F048FA4FF0FF33AB620126AE652A4B15
:104448001868FCF759F824A3D3E90023FCF7ACF863
:104458000022264BFCF7D2F9FCF768FBA060A062AB
:10446800234BDA6942F00402DA61DB6903F00403E2
:104478000193019B1F4C204B23604FF4A073636092
:104488000025A5604FF6FF73E36025616561A561AE
:104498002046FDF789FC2046FDF7BBFA2268D36861
:1044A8003343D3602A4631461E20FDF737FE1E20CF
:1044B800FDF768FE2A4603211720FDF72FFE172077
:1044C800FDF760FE2A4603212820FDF727FE282055
:1044D800FDF758FE02B070BDEA2E4454FB21094096
:1044E800A80500204805002028000020008056402C
:1044F80000100240E8050020000800402DE9F04FB8
:1045080083B072B6594B1B68D3F824B0584BD3E923
:104518000067584B9B6803F0E003DB43C3F3421387
:10452800554AD370554B9B6803F4E053DB43C3F300
:10453800822382F8333062B6002412E0504B03EB3A
:104548004413DA690132DA616200224411014A4BEC
:104558000B44DA78D2B21A71D3E90201C3E9040133
:104568000134012C7EDC620022441101424B0B44D1
:104578001A79D2B2DB78DBB29A42F1D03E4B0B44C7
:104588001B79002BE0D03C4D0D4405236B623B04A6
:104598004BEA064843EA1649C5E90289D5E902010A
:1045A800D5E90423831A01932B79EA78C3EBC30373
:1045B8001344344A52F82320AB6A03FB02F32B62FC
:1045C8002F4A630102EB030AD158286A0144D150EB
:1045D800D058FCF7B5FBFCF7CDFDDAF808200092BF
:1045E800FCF7AEFB0099FCF7FFFBFCF7C3FDCAF82C
:1045F8000C00019BCAF818302B6A002B9ED0554638
:10460800DAF81800FCF798FBFBF776FF02460B4632
:1046180000201D49FCF7F2F8FCF760FA6300234418
:104628001A01154B03EB020ADAF8203003FB00F0FD
:104638006860AB680093A869FCF77EFB01460098A8
:10464800FCF786FC0090DAF82000FCF779FB0146BD
:104658000098FCF7C9FB0D49FCF7C6FBFCF78AFD7F
:10466800686171E703B0BDE8F08F00BFE80500207E
:10467800E8000020000C014048050020001001401F
:10468800A8050020B451000800400F410050C3475E
:10469800184B1B681A6912F0010F2AD030B46FF05A
:1046A80001021A611449D1E90023541C43F10005A1
:1046B800C1E90045002307E0104A02EB431200213C
:1046C8005160516191610133012B10DC03EB43020E
:1046D80011010B4A0A44526A002AEDDD59001944B7
:1046E8000801074A0244516A01395162EBE730BCBC
:1046F80070477047E8050020E8000020A805002062
:10470800480500207047FEE7FEE7FEE7FEE7704732
:104718007047704708B5FDF727FFFDF766FD08BD30
:1047280008B51B4B5B6913F4007303D04FF4007397
:10473800174A5361164A526912F4807F05D0144A09
:104748004FF48071516143F40073114A526912F0B9
:10475800800F03D00E4A802151610B430C4A5269E5
:1047680012F0400F03D00A4A402151610B43084A16
:10477800526912F0200F03D0054A202151610B43E2
:1047880013F4E75F00D108BDFFF7B8FEFBE700BFF1
:104798000004014008B5214B5B6913F4004303D0C2
:1047A8004FF400431D4A53611C4A526912F4804F6A
:1047B80004D01A4A4FF4804151610B43174A526999
:1047C80012F4005F04D0154A4FF4005151610B43B5
:1047D800124A526912F4805F04D0104A4FF4805193
:1047E80051610B430D4A526912F4006F04D00B4A11
:1047F8004FF4006151610B43084A526912F4806F0B
:1048080004D0064A4FF4806151610B4313F4E75F0B
:1048180000D108BDFFF772FEFBE700BF00040140AE
:1048280008B50248FDF7B7F908BD00BFD00200205F
:10483800002103E00B4B5B58435004310A480B4BF3
:1048480042189A42F6D30A4A02E0002342F8043B8F
:10485800084B9A42F9D3FEF709FA00F00FF8FEF771
:104868005BFE7047B4520008000000209000002052
:104878009000002038060020FEE7000070B50026F2
:104888000C4D0D4C641BA410A64209D100F058FC35
:1048980000260A4D0A4C641BA410A64205D170BD1F
:1048A80055F8043B98470136EEE755F8043B98471E
:1048B8000136F2E7AC520008AC520008AC520008CE
:1048C800B052000803460244934200D1704703F8EF
:1048D800011BF9E70EB46FF0004100B59CB01DABA9
:1048E80002900690079104910848094953F8042B4F
:1048F8000591006802A9019300F068F80022029B64
:104908001A701CB05DF804EB03B070472C0000204F
:104918000802FFFF2DE9F0478E6882469E420C464A
:104928009146984638D8B1F80CC01CF4906F31D035
:1049380062692568096902EB42026F1A02EBD272BA
:10494800013355103B449D4238BF1D461CF4806F0F
:1049580030D0294600F040FB064650B90C234FF0F2
:10496800FF30CAF80030A38943F04003A381BDE8B3
:10497800F0873A46216900F0BBFAA38923F49063D3
:1049880043F08003A38126613E4426604646656164
:10499800ED1BA560464500D9464632464946206883
:1049A80000F0B4FAA36800209B1BA36023681E4490
:1049B8002660DCE72A4600F069FB06460028E2D1BB
:1049C8002169504600F0BCFAC8E700002DE9F04F15
:1049D8001E468B899DB01B0607460D4614460ED50C
:1049E8000B6963B9402100F0F7FA2860286120B903
:1049F8000C233B604FF0FF30C9E040236B6100237C
:104A0800099320238DF8293030234FF0010ADFF86D
:104A180098918DF82A30039623461E4613F8012BE9
:104A28000AB1252AF9D1B6EB040B0BD05B46224616
:104A380029463846FFF76EFF013000F0A380099B36
:104A48005B4409933378002B00F09C8000234FF0DF
:104A5800FF32CDE905230136049307938DF85330CF
:104A68001A933446052214F8011B4F4800F032FA15
:104A7800049BC0B9D90644BF20228DF853201A07D9
:104A880044BF2B228DF8532032782A2A13D034467B
:104A980000200A26079A214611F8013B303B092BD2
:104AA8004BD970B914E0A0EB09000AFA00F01843DA
:104AB80004902646D5E7039A111D12680391002A2F
:104AC80001DB079204E0524243F002030792049389
:104AD80023782E2B0CD163782A2B33D1039B0234F5
:104AE8001A1D1B680392002BB8BF4FF0FF330593C4
:104AF8002E4E03222178304600F0ECF938B14023DD
:104B0800801B03FA00F0049B01340343049314F858
:104B1800011B062226488DF8281000F0DBF9002832
:104B280038D0244B13BB039B073323F00703083308
:104B38000393099B434409936EE706FB0232012065
:104B48000C46A8E700230A26194601340593204697
:104B580010F8012B303A092A03D9002BC8D0059147
:104B6800C6E706FB012101230446F0E703AB0093E7
:104B78002A46114B04A93846AFF30080B0F1FF3F35
:104B88008046D6D1AB895B063FF534AF09981DB096
:104B9800BDE8F08F03AB00932A46074B04A93846BB
:104BA80000F082F8EAE700BF785200087E52000859
:104BB80082520008000000001D4900082DE9F04756
:104BC80091461F468A680B6906469342B8BF13464A
:104BD800C9F8003091F843200C46DDF8208012B166
:104BE8000133C9F800302368990642BFD9F800306C
:104BF8000233C9F80030256815F0060507D104F11D
:104C0800190AE368D9F800209B1AAB4229DC94F80A
:104C180043302268003318BF012392062ED404F1D2
:104C2800430239463046C047013021D02368E56841
:104C380003F00603042B18BF0025D9F800204FF015
:104C4800000908BFAD1AA368226908BF25EAE575FF
:104C58009342C4BF9B1AED181A344D451AD100204F
:104C680008E00123524639463046C047013003D197
:104C78004FF0FF30BDE8F0870135C2E73020E1187A
:104C880081F843005A1C94F845102244023382F8F4
:104C98004310C4E70123224639463046C047013055
:104CA800E6D009F10109D8E72DE9F04306460C469C
:104CB80001F14300097E85B06E29984617460C9B82
:104CC80000F0BB8024D8632939D00AD8002900F025
:104CD800C480582900F0928004F1420584F84210FB
:104CE80035E0642901D06929F6D125681A6815F0DC
:104CF800800F02F104012CD012681960002A03DA2F
:104D08002D23524284F84330DFF8C0C10A233FE024
:104D1800732900F0A68008D86F2921D07029DBD12B
:104D2800226842F02002226003E0752918D0782911
:104D3800D2D17822DFF898C184F8452062E01A6859
:104D480004F14205111D1960136884F842300123EB
:104D580094E0126815F0400F196018BF12B2CDE741
:104D6800D4F800C01A681CF0800F02F104051D6019
:104D780001D0126803E01CF0400FFAD012886F29A6
:104D88000CBF08230A23DFF844C1002184F843102C
:104D98006568002DA8BF2168A560A4BF21F00401A3
:104DA80021600AB9002D46D00546B2FBF3F103FB9A
:104DB800112E1CF80EE0934205F801ED39D9082BA5
:104DC8000BD12368DA0708D5236962689A42DEBFE7
:104DD800302305F8013C05F1FF35401B2061CDF873
:104DE80000803B4603AA21463046FFF7E7FE013024
:104DF80049D14FF0FF3005B0BDE8F083DFF8CCC0F3
:104E080084F845101D68216855F8042B1D600D06AF
:104E18000BD5CD0744BF41F0200121601AB92368A2
:104E280023F0200323601023AFE74B0648BF92B25C
:104E3800EFE70A46B9E70546C1E71A68D4F800C0A3
:104E4800151D61691CF0800F1D60136801D0196081
:104E580003E01CF0400FFAD01980002305462361B7
:104E6800BDE71A68111D1960156800216268284697
:104E780000F030F808B1401B6060636823610023CC
:104E880084F84330ABE723692A4639463046C047A1
:104E98000130AED023689B0713D4E068039B984287
:104EA800B8BF1846A7E701234A4639463046C047E7
:104EB80001309ED00135E368039A9B1AAB42F2DCBD
:104EC800EBE7002504F11909F5E700BF895200084E
:104ED8009A52000810B5C9B202449042034601D163
:104EE800002303E01C7801308C42F6D1184610BD2F
:104EF8000A44914200F1FF3300D1704710B511F810
:104F0800014B914203F8014FF9D110BD884210B509
:104F180001EB020302D983421C4607D8421E99427C
:104F280008D011F8014B02F8014FF8E783189A1AD4
:104F38009A4200D110BD14F8011D03F8011DF7E7CE
:104F480038B50546002943D051F8043C0C1F002B06
:104F5800B8BFE41800F0D0F81E4A1368104633B9F9
:104F6800636014602846BDE8384000F0CBB8A3421F
:104F78000BD921686218934201BF1A685B685218FE
:104F8800226063600460EDE713465A680AB1A242E2
:104F9800FAD919685818A0420BD12068014458184A
:104FA80082421960DED110685268014419605A6063
:104FB800D8E702D90C232B60D4E7206821188A424D
:104FC80001BF116852680918216062605C60C9E716
:104FD80038BD00BFF0000020F8B5CD1C25F0030552
:104FE80008350C2D38BF0C25002D064601DBA942DB
:104FF80003D90C2333600020F8BD00F07DF8214967
:105008000A6814469CB9204F3B6823B921463046AC
:1050180000F062F838602946304600F05DF8431C1D
:1050280023D10C233046336000F06CF8E3E72368A3
:105038005B1B17D40B2B03D923601C44256004E0A9
:105048006368A2420CBF0B605360304600F05AF808
:1050580004F10B00231D20F00700C21ACCD01B1A44
:10506800A350C9E722466468CCE7C41C24F00304B3
:10507800A042E3D0211A304600F02EF80130DDD1ED
:10508800CFE700BFF0000020F4000020F8B5074685
:1050980014460E4621B91146BDE8F840FFF79CBFFB
:1050A80022B9FFF74DFF25462846F8BD00F030F835
:1050B800A0420FD221463846FFF78EFF054600284A
:1050C800F2D031462246FFF713FF31463846FFF744
:1050D80037FFE9E73546E7E738B50023054C0546CD
:1050E8000846236000F01EF8431C02D1236803B170
:1050F8002B6038BD28060020014800F011B800BF19
:1051080030060020014800F00CB800BF300600202F
:1051180051F8043C181F002BBCBF0B58C01870472F
:1051280070477047044A05491368002B08BF0B46AF
:105138001844106018467047F80000203806002010
:10514800F8B500BFF8BC08BC9E467047F8B500BF6C
:08515800F8BC08BC9E4670473C
:1051600002030405060708090A0B0C0D0E0F1010A8
:105170000102000000000000000000000102030422
:105180000607080900000000010203047372632F80
:1051900073657475702E630000000201040503003E
:1051A0002569202569202569202569202569200D8C
:1051B0000A000000000000000000000000000000E5
:1051C00000000000000000000000000000000000DF
:1051D000000000000000000000000000FFFFFFFFD3
:1051E00000000000010000000000000000000000BE
:1051F00000000000000000000100000000000000AE
:1052000000000000FFFFFFFF0000000001000000A1
:10521000FFFFFFFF00000000000000000000000092
:10522000000000000000000000000000000000007E
:105230000000000000000000FFFFFFFF0100000071
:1052400000000000FFFFFFFF000000000000000062
:10525000010000000000000000000000000000004D
:10526000000000000100000000000000FFFFFFFF41
:105270000000000000000000232D302B2000686C8F
:105280004C00656667454647003031323334353669
:1052900037383941424344454600303132333435A2
:0C52A000363738396162636465660000CF
:0452AC000D020008E7
:0452B000E901000808
:1052B40000A24A046400000000002042D00700005D
:1052C400D0070000D0070000D0070000D00700007E
:1052D400D0070000010000009A1925433000002087
:1052E40000000000000000000000000000000000BA
:1052F40000000000000000000000000000000000AA
:105304000000000000000000000000000000000099
:105314000000000000000000000000000000000089
:105324000000000000000000000000000000000079
:105334000000000000000000000000000000000069
:04000005080048396E
:00000001FF
